{
  "abi": [
    {
      "inputs": [
        {
          "internalType": "address",
          "name": "_usdt",
          "type": "address"
        },
        {
          "internalType": "address",
          "name": "_usdc",
          "type": "address"
        },
        {
          "internalType": "uint256",
          "name": "_supply",
          "type": "uint256"
        },
        {
          "internalType": "uint256",
          "name": "_price",
          "type": "uint256"
        }
      ],
      "stateMutability": "nonpayable",
      "type": "constructor"
    },
    {
      "inputs": [
        {
          "internalType": "address",
          "name": "owner",
          "type": "address"
        }
      ],
      "name": "OwnableInvalidOwner",
      "type": "error"
    },
    {
      "inputs": [
        {
          "internalType": "address",
          "name": "account",
          "type": "address"
        }
      ],
      "name": "OwnableUnauthorizedAccount",
      "type": "error"
    },
    {
      "inputs": [],
      "name": "ReentrancyGuardReentrantCall",
      "type": "error"
    },
    {
      "anonymous": false,
      "inputs": [
        {
          "indexed": false,
          "internalType": "uint256",
          "name": "_amount",
          "type": "uint256"
        },
        {
          "indexed": false,
          "internalType": "uint256",
          "name": "_balance",
          "type": "uint256"
        }
      ],
      "name": "DEBUG",
      "type": "event"
    },
    {
      "anonymous": false,
      "inputs": [
        {
          "indexed": false,
          "internalType": "bool",
          "name": "_status",
          "type": "bool"
        },
        {
          "indexed": false,
          "internalType": "uint256",
          "name": "timestamp",
          "type": "uint256"
        }
      ],
      "name": "Freeze",
      "type": "event"
    },
    {
      "anonymous": false,
      "inputs": [
        {
          "indexed": true,
          "internalType": "address",
          "name": "previousOwner",
          "type": "address"
        },
        {
          "indexed": true,
          "internalType": "address",
          "name": "newOwner",
          "type": "address"
        }
      ],
      "name": "OwnershipTransferred",
      "type": "event"
    },
    {
      "anonymous": false,
      "inputs": [
        {
          "indexed": false,
          "internalType": "address",
          "name": "_from",
          "type": "address"
        },
        {
          "indexed": false,
          "internalType": "address",
          "name": "_to",
          "type": "address"
        },
        {
          "indexed": false,
          "internalType": "uint256",
          "name": "_amount",
          "type": "uint256"
        },
        {
          "indexed": false,
          "internalType": "uint256",
          "name": "timestamp",
          "type": "uint256"
        }
      ],
      "name": "PledgeUsdc",
      "type": "event"
    },
    {
      "anonymous": false,
      "inputs": [
        {
          "indexed": false,
          "internalType": "address",
          "name": "_from",
          "type": "address"
        },
        {
          "indexed": false,
          "internalType": "address",
          "name": "_to",
          "type": "address"
        },
        {
          "indexed": false,
          "internalType": "uint256",
          "name": "_amount",
          "type": "uint256"
        },
        {
          "indexed": false,
          "internalType": "uint256",
          "name": "timestamp",
          "type": "uint256"
        }
      ],
      "name": "PledgeUsdt",
      "type": "event"
    },
    {
      "anonymous": false,
      "inputs": [
        {
          "indexed": false,
          "internalType": "uint256",
          "name": "_old",
          "type": "uint256"
        },
        {
          "indexed": false,
          "internalType": "uint256",
          "name": "_new",
          "type": "uint256"
        },
        {
          "indexed": false,
          "internalType": "uint256",
          "name": "timestamp",
          "type": "uint256"
        }
      ],
      "name": "PledgedCountSet",
      "type": "event"
    },
    {
      "anonymous": false,
      "inputs": [
        {
          "indexed": false,
          "internalType": "uint256",
          "name": "_old",
          "type": "uint256"
        },
        {
          "indexed": false,
          "internalType": "uint256",
          "name": "_new",
          "type": "uint256"
        },
        {
          "indexed": false,
          "internalType": "uint256",
          "name": "timestamp",
          "type": "uint256"
        }
      ],
      "name": "PriceSet",
      "type": "event"
    },
    {
      "anonymous": false,
      "inputs": [
        {
          "indexed": false,
          "internalType": "uint256",
          "name": "_old",
          "type": "uint256"
        },
        {
          "indexed": false,
          "internalType": "uint256",
          "name": "_new",
          "type": "uint256"
        },
        {
          "indexed": false,
          "internalType": "uint256",
          "name": "timestamp",
          "type": "uint256"
        }
      ],
      "name": "SupplySet",
      "type": "event"
    },
    {
      "anonymous": false,
      "inputs": [
        {
          "indexed": false,
          "internalType": "bool",
          "name": "_status",
          "type": "bool"
        },
        {
          "indexed": false,
          "internalType": "uint256",
          "name": "timestamp",
          "type": "uint256"
        }
      ],
      "name": "Unfreeze",
      "type": "event"
    },
    {
      "anonymous": false,
      "inputs": [
        {
          "indexed": false,
          "internalType": "address",
          "name": "_to",
          "type": "address"
        },
        {
          "indexed": false,
          "internalType": "uint256",
          "name": "_amount",
          "type": "uint256"
        },
        {
          "indexed": false,
          "internalType": "uint256",
          "name": "timestamp",
          "type": "uint256"
        }
      ],
      "name": "WithdrawUsdc",
      "type": "event"
    },
    {
      "anonymous": false,
      "inputs": [
        {
          "indexed": false,
          "internalType": "address",
          "name": "_to",
          "type": "address"
        },
        {
          "indexed": false,
          "internalType": "uint256",
          "name": "_amount",
          "type": "uint256"
        },
        {
          "indexed": false,
          "internalType": "uint256",
          "name": "timestamp",
          "type": "uint256"
        }
      ],
      "name": "WithdrawUsdt",
      "type": "event"
    },
    {
      "inputs": [],
      "name": "freeze",
      "outputs": [],
      "stateMutability": "nonpayable",
      "type": "function"
    },
    {
      "inputs": [
        {
          "internalType": "address",
          "name": "_address",
          "type": "address"
        }
      ],
      "name": "getPledged",
      "outputs": [
        {
          "internalType": "uint256",
          "name": "",
          "type": "uint256"
        }
      ],
      "stateMutability": "view",
      "type": "function"
    },
    {
      "inputs": [],
      "name": "getPrice",
      "outputs": [
        {
          "internalType": "uint256",
          "name": "",
          "type": "uint256"
        }
      ],
      "stateMutability": "view",
      "type": "function"
    },
    {
      "inputs": [],
      "name": "getTotalPledgedCount",
      "outputs": [
        {
          "internalType": "uint256",
          "name": "",
          "type": "uint256"
        }
      ],
      "stateMutability": "view",
      "type": "function"
    },
    {
      "inputs": [],
      "name": "getTotalSupply",
      "outputs": [
        {
          "internalType": "uint256",
          "name": "",
          "type": "uint256"
        }
      ],
      "stateMutability": "view",
      "type": "function"
    },
    {
      "inputs": [],
      "name": "owner",
      "outputs": [
        {
          "internalType": "address",
          "name": "",
          "type": "address"
        }
      ],
      "stateMutability": "view",
      "type": "function"
    },
    {
      "inputs": [
        {
          "internalType": "uint256",
          "name": "_amount",
          "type": "uint256"
        }
      ],
      "name": "pledgeUsdc",
      "outputs": [
        {
          "internalType": "bool",
          "name": "",
          "type": "bool"
        }
      ],
      "stateMutability": "nonpayable",
      "type": "function"
    },
    {
      "inputs": [
        {
          "internalType": "uint256",
          "name": "_amount",
          "type": "uint256"
        }
      ],
      "name": "pledgeUsdt",
      "outputs": [
        {
          "internalType": "bool",
          "name": "",
          "type": "bool"
        }
      ],
      "stateMutability": "nonpayable",
      "type": "function"
    },
    {
      "inputs": [],
      "name": "renounceOwnership",
      "outputs": [],
      "stateMutability": "nonpayable",
      "type": "function"
    },
    {
      "inputs": [
        {
          "internalType": "uint256",
          "name": "_newPrice",
          "type": "uint256"
        }
      ],
      "name": "setPrice",
      "outputs": [
        {
          "internalType": "uint256",
          "name": "",
          "type": "uint256"
        }
      ],
      "stateMutability": "nonpayable",
      "type": "function"
    },
    {
      "inputs": [
        {
          "internalType": "uint256",
          "name": "_newTotalPledgedCount",
          "type": "uint256"
        }
      ],
      "name": "setTotalPledgedCount",
      "outputs": [
        {
          "internalType": "uint256",
          "name": "",
          "type": "uint256"
        }
      ],
      "stateMutability": "nonpayable",
      "type": "function"
    },
    {
      "inputs": [
        {
          "internalType": "uint256",
          "name": "_newSupply",
          "type": "uint256"
        }
      ],
      "name": "setTotalSupply",
      "outputs": [
        {
          "internalType": "uint256",
          "name": "",
          "type": "uint256"
        }
      ],
      "stateMutability": "nonpayable",
      "type": "function"
    },
    {
      "inputs": [
        {
          "internalType": "address",
          "name": "newOwner",
          "type": "address"
        }
      ],
      "name": "transferOwnership",
      "outputs": [],
      "stateMutability": "nonpayable",
      "type": "function"
    },
    {
      "inputs": [],
      "name": "unfreeze",
      "outputs": [],
      "stateMutability": "nonpayable",
      "type": "function"
    },
    {
      "inputs": [],
      "name": "withdrawUsdc",
      "outputs": [
        {
          "internalType": "bool",
          "name": "",
          "type": "bool"
        }
      ],
      "stateMutability": "nonpayable",
      "type": "function"
    },
    {
      "inputs": [],
      "name": "withdrawUsdt",
      "outputs": [
        {
          "internalType": "bool",
          "name": "",
          "type": "bool"
        }
      ],
      "stateMutability": "nonpayable",
      "type": "function"
    }
  ],
  "bytecode": {
    "object": "0x60806040526003805460ff1916600117905534801561001d57600080fd5b506040516111c63803806111c683398101604081905261003c91610117565b338061006257604051631e4fbdf760e01b81526000600482015260240160405180910390fd5b61006b816100ab565b5060018055600880546001600160a01b039586166001600160a01b031991821617909155600780549490951693169290921790925560045560065561015a565b600080546001600160a01b038381166001600160a01b0319831681178455604051919092169283917f8be0079c531659141344cd1fd0a4f28419497f9722a3daafe3b4186f6b6457e09190a35050565b80516001600160a01b038116811461011257600080fd5b919050565b6000806000806080858703121561012d57600080fd5b610136856100fb565b9350610144602086016100fb565b6040860151606090960151949790965092505050565b61105d806101696000396000f3fe608060405234801561001057600080fd5b50600436106101005760003560e01c8063a5cdd53611610097578063dddd894211610066578063dddd8942146101db578063f2fde38b146101ee578063f7ea7a3d14610201578063fee84d4e1461021457600080fd5b8063a5cdd53614610184578063ae47d7ce146101ad578063c47797e0146101c0578063c4e41b22146101d357600080fd5b8063715018a6116100d3578063715018a6146101465780638da5cb5b1461014e57806391b7f5ed1461016957806398d5fdca1461017c57600080fd5b806338b781051461010557806362a5af3b1461011c5780636865b8e7146101265780636a28f0001461013e575b600080fd5b6005545b6040519081526020015b60405180910390f35b61012461021c565b005b61012e6102b9565b6040519015158152602001610113565b61012461045a565b6101246104e2565b6000546040516001600160a01b039091168152602001610113565b610109610177366004610e90565b6104f6565b600454610109565b610109610192366004610ea9565b6001600160a01b031660009081526002602052604090205490565b61012e6101bb366004610e90565b6105e0565b61012e6101ce366004610e90565b6108cf565b600654610109565b6101096101e9366004610e90565b610b40565b6101246101fc366004610ea9565b610bcc565b61010961020f366004610e90565b610c0a565b61012e610c96565b610224610de9565b60035460ff161561026e5760405162461bcd60e51b815260206004820152600f60248201526e20b63932b0b23c90333937bd32b71760891b60448201526064015b60405180910390fd5b6003805460ff19166001908117909155604080519182524260208301527f0d5d65c546908d7b56656ae37e588980e4ac0dbd76144ce2e3dc5a9f94a02b8491015b60405180910390a1565b60006102c3610de9565b6102cb610e16565b6000546001600160a01b031633146103255760405162461bcd60e51b815260206004820152601d60248201527f4f6e6c792061646d696e2063616e20776974686472617720555344542e0000006044820152606401610265565b6008546040516370a0823160e01b81523060048201526000916001600160a01b0316906370a0823190602401602060405180830381865afa15801561036e573d6000803e3d6000fd5b505050506040513d601f19601f820116820180604052508101906103929190610ed9565b6040805133815260208101839052428183015290519192507fd145601520053a6cbded7c98f542240fdb9fce419cbeee1e1c264cdf4237fd21919081900360600190a160085460405163a9059cbb60e01b8152336004820152602481018390526001600160a01b039091169063a9059cbb906044015b6020604051808303816000875af1158015610427573d6000803e3d6000fd5b505050506040513d601f19601f8201168201806040525081019061044b9190610ef2565b91505061045760018055565b90565b610462610de9565b60035460ff166104a25760405162461bcd60e51b815260206004820152600b60248201526a2737ba10333937bd32b71760a91b6044820152606401610265565b6003805460ff1916905560408051600081524260208201527fc8b85755fc66d02ba3b35e91568edb1ad25920be8fdc327cadd6d789efae725891016102af565b6104ea610de9565b6104f46000610e40565b565b6000610500610de9565b60035460ff16158061051c57506000546001600160a01b031633145b6105385760405162461bcd60e51b815260040161026590610f14565b600082116105925760405162461bcd60e51b815260206004820152602160248201527f4e6577207072696365206d7573742062652067726561746572207468616e20306044820152601760f91b6064820152608401610265565b60045460408051918252602082018490524282820152517f22db173e2a8b7fa2d933790c01e64878b79e267d813bb3227a15b1c7ac404ffe9181900360600190a1506004819055805b919050565b60006105ea610e16565b60035460ff16158061060657506000546001600160a01b031633145b6106225760405162461bcd60e51b815260040161026590610f14565b6000600454836106329190610f7b565b9050600654816005546106459190610f8f565b106106625760405162461bcd60e51b815260040161026590610fb6565b6008546040516370a0823160e01b81523360048201527fbd081248c2d094d540df808ba4c32d0c72ce21dfa07cffca4b76df49f2924a019185916001600160a01b03909116906370a0823190602401602060405180830381865afa1580156106ce573d6000803e3d6000fd5b505050506040513d601f19601f820116820180604052508101906106f29190610ed9565b6040805192835260208301919091520160405180910390a16008546040516370a0823160e01b81523360048201526001600160a01b03909116906370a0823190602401602060405180830381865afa158015610752573d6000803e3d6000fd5b505050506040513d601f19601f820116820180604052508101906107769190610ed9565b8311156107c55760405162461bcd60e51b815260206004820152601a60248201527f496e73756666696369656e7420555344542062616c616e63652e0000000000006044820152606401610265565b336000908152600260205260409020546107e0908490610f8f565b336000908152600260205260409020556005546107fe908290610f8f565b600555604080513381523060208201529081018490524260608201527fccee74a23cd6da3af81ee833d62b5bc4d56c5def7e9c074fea6ffeae9730e3e59060800160405180910390a16008546040516323b872dd60e01b8152336004820152306024820152604481018590526001600160a01b03909116906323b872dd906064015b6020604051808303816000875af115801561089f573d6000803e3d6000fd5b505050506040513d601f19601f820116820180604052508101906108c39190610ef2565b9150506105db60018055565b60006108d9610e16565b60035460ff1615806108f557506000546001600160a01b031633145b6109115760405162461bcd60e51b815260040161026590610f14565b60045461091e9083611013565b156109865760405162461bcd60e51b815260206004820152603260248201527f506c6564676520616d6f756e74206d7573742062652061206d756c7469706c656044820152711037b31031bab93932b73a10383934b1b29760711b6064820152608401610265565b6000600454836109969190610f7b565b9050600654816005546109a99190610f8f565b106109c65760405162461bcd60e51b815260040161026590610fb6565b6007546040516370a0823160e01b81523360048201526001600160a01b03909116906370a0823190602401602060405180830381865afa158015610a0e573d6000803e3d6000fd5b505050506040513d601f19601f82011682018060405250810190610a329190610ed9565b831115610a815760405162461bcd60e51b815260206004820152601a60248201527f496e73756666696369656e7420555344432062616c616e63652e0000000000006044820152606401610265565b33600090815260026020526040902054610a9c908490610f8f565b33600090815260026020526040902055600554610aba908290610f8f565b600555604080513381523060208201529081018490524260608201527f54f4902fa5d8aee3d294ee2ffa24d8db87867560acd73a0a3ebe0016de3c9a919060800160405180910390a16007546040516323b872dd60e01b8152336004820152306024820152604481018590526001600160a01b03909116906323b872dd90606401610880565b6000610b4a610de9565b60035460ff161580610b6657506000546001600160a01b031633145b610b825760405162461bcd60e51b815260040161026590610f14565b60055460408051918252602082018490524282820152517f457fb56c616802a3e226649c2be4e9d9b0df661b5d4026493c302edffd604f539181900360600190a150600581905590565b610bd4610de9565b6001600160a01b038116610bfe57604051631e4fbdf760e01b815260006004820152602401610265565b610c0781610e40565b50565b6000610c14610de9565b60035460ff161580610c3057506000546001600160a01b031633145b610c4c5760405162461bcd60e51b815260040161026590610f14565b60065460408051918252602082018490524282820152517f2416dd7afd909a6b9e9340961d193271c118040e16870367018c6c5dbd79e1e79181900360600190a150600681905590565b6000610ca0610de9565b610ca8610e16565b6000546001600160a01b03163314610d025760405162461bcd60e51b815260206004820152601d60248201527f4f6e6c792061646d696e2063616e20776974686472617720555344432e0000006044820152606401610265565b6007546040516370a0823160e01b81523060048201526000916001600160a01b0316906370a0823190602401602060405180830381865afa158015610d4b573d6000803e3d6000fd5b505050506040513d601f19601f82011682018060405250810190610d6f9190610ed9565b6040805133815260208101839052428183015290519192507fc4bbf6281c4940c4212015e253fae8146d9691c7eed6e60a3295bd59cf4b438c919081900360600190a160075460405163a9059cbb60e01b8152336004820152602481018390526001600160a01b039091169063a9059cbb90604401610408565b6000546001600160a01b031633146104f45760405163118cdaa760e01b8152336004820152602401610265565b600260015403610e3957604051633ee5aeb560e01b815260040160405180910390fd5b6002600155565b600080546001600160a01b038381166001600160a01b0319831681178455604051919092169283917f8be0079c531659141344cd1fd0a4f28419497f9722a3daafe3b4186f6b6457e09190a35050565b600060208284031215610ea257600080fd5b5035919050565b600060208284031215610ebb57600080fd5b81356001600160a01b0381168114610ed257600080fd5b9392505050565b600060208284031215610eeb57600080fd5b5051919050565b600060208284031215610f0457600080fd5b81518015158114610ed257600080fd5b60208082526031908201527f416c6c207374617465206368616e67696e67207472616e73616374696f6e732060408201527031bab93932b73a363c90333937bd32b71760791b606082015260800190565b634e487b7160e01b600052601260045260246000fd5b600082610f8a57610f8a610f65565b500490565b80820180821115610fb057634e487b7160e01b600052601160045260246000fd5b92915050565b60208082526037908201527f4e6f7420656e6f75676820737570706c792e20436f6e7369646572207265647560408201527f63696e6720796f757220706c6564676520636f756e742e000000000000000000606082015260800190565b60008261102257611022610f65565b50069056fea2646970667358221220c14e54e88d7a2cc93436b41fc1d867284c0813a33b5570441e085d0daf9250cd64736f6c63430008150033",
    "linkReferences": {}
  },
  "methodIdentifiers": {
    "freeze()": "62a5af3b",
    "getPledged(address)": "a5cdd536",
    "getPrice()": "98d5fdca",
    "getTotalPledgedCount()": "38b78105",
    "getTotalSupply()": "c4e41b22",
    "owner()": "8da5cb5b",
    "pledgeUsdc(uint256)": "c47797e0",
    "pledgeUsdt(uint256)": "ae47d7ce",
    "renounceOwnership()": "715018a6",
    "setPrice(uint256)": "91b7f5ed",
    "setTotalPledgedCount(uint256)": "dddd8942",
    "setTotalSupply(uint256)": "f7ea7a3d",
    "transferOwnership(address)": "f2fde38b",
    "unfreeze()": "6a28f000",
    "withdrawUsdc()": "fee84d4e",
    "withdrawUsdt()": "6865b8e7"
  },
  "id": 29
}