{
  "abi": [
    {
      "inputs": [
        {
          "internalType": "address",
          "name": "_usdt",
          "type": "address"
        },
        {
          "internalType": "address",
          "name": "_usdc",
          "type": "address"
        },
        {
          "internalType": "uint256",
          "name": "_supply",
          "type": "uint256"
        },
        {
          "internalType": "uint256",
          "name": "_price",
          "type": "uint256"
        }
      ],
      "stateMutability": "nonpayable",
      "type": "constructor"
    },
    {
      "inputs": [
        {
          "internalType": "address",
          "name": "owner",
          "type": "address"
        }
      ],
      "name": "OwnableInvalidOwner",
      "type": "error"
    },
    {
      "inputs": [
        {
          "internalType": "address",
          "name": "account",
          "type": "address"
        }
      ],
      "name": "OwnableUnauthorizedAccount",
      "type": "error"
    },
    {
      "inputs": [],
      "name": "ReentrancyGuardReentrantCall",
      "type": "error"
    },
    {
      "anonymous": false,
      "inputs": [
        {
          "indexed": false,
          "internalType": "bool",
          "name": "_status",
          "type": "bool"
        },
        {
          "indexed": false,
          "internalType": "uint256",
          "name": "timestamp",
          "type": "uint256"
        }
      ],
      "name": "Freeze",
      "type": "event"
    },
    {
      "anonymous": false,
      "inputs": [
        {
          "indexed": true,
          "internalType": "address",
          "name": "previousOwner",
          "type": "address"
        },
        {
          "indexed": true,
          "internalType": "address",
          "name": "newOwner",
          "type": "address"
        }
      ],
      "name": "OwnershipTransferred",
      "type": "event"
    },
    {
      "anonymous": false,
      "inputs": [
        {
          "indexed": false,
          "internalType": "address",
          "name": "_from",
          "type": "address"
        },
        {
          "indexed": false,
          "internalType": "address",
          "name": "_to",
          "type": "address"
        },
        {
          "indexed": false,
          "internalType": "uint256",
          "name": "_amount",
          "type": "uint256"
        },
        {
          "indexed": false,
          "internalType": "uint256",
          "name": "timestamp",
          "type": "uint256"
        }
      ],
      "name": "PledgeUsdc",
      "type": "event"
    },
    {
      "anonymous": false,
      "inputs": [
        {
          "indexed": false,
          "internalType": "address",
          "name": "_from",
          "type": "address"
        },
        {
          "indexed": false,
          "internalType": "address",
          "name": "_to",
          "type": "address"
        },
        {
          "indexed": false,
          "internalType": "uint256",
          "name": "_amount",
          "type": "uint256"
        },
        {
          "indexed": false,
          "internalType": "uint256",
          "name": "timestamp",
          "type": "uint256"
        }
      ],
      "name": "PledgeUsdt",
      "type": "event"
    },
    {
      "anonymous": false,
      "inputs": [
        {
          "indexed": false,
          "internalType": "uint256",
          "name": "_old",
          "type": "uint256"
        },
        {
          "indexed": false,
          "internalType": "uint256",
          "name": "_new",
          "type": "uint256"
        },
        {
          "indexed": false,
          "internalType": "uint256",
          "name": "timestamp",
          "type": "uint256"
        }
      ],
      "name": "PriceSet",
      "type": "event"
    },
    {
      "anonymous": false,
      "inputs": [
        {
          "indexed": false,
          "internalType": "uint256",
          "name": "_old",
          "type": "uint256"
        },
        {
          "indexed": false,
          "internalType": "uint256",
          "name": "_new",
          "type": "uint256"
        },
        {
          "indexed": false,
          "internalType": "uint256",
          "name": "timestamp",
          "type": "uint256"
        }
      ],
      "name": "SupplySet",
      "type": "event"
    },
    {
      "anonymous": false,
      "inputs": [
        {
          "indexed": false,
          "internalType": "bool",
          "name": "_status",
          "type": "bool"
        },
        {
          "indexed": false,
          "internalType": "uint256",
          "name": "timestamp",
          "type": "uint256"
        }
      ],
      "name": "Unfreeze",
      "type": "event"
    },
    {
      "anonymous": false,
      "inputs": [
        {
          "indexed": false,
          "internalType": "address",
          "name": "_to",
          "type": "address"
        },
        {
          "indexed": false,
          "internalType": "uint256",
          "name": "_amount",
          "type": "uint256"
        },
        {
          "indexed": false,
          "internalType": "uint256",
          "name": "timestamp",
          "type": "uint256"
        }
      ],
      "name": "WithdrawUsdc",
      "type": "event"
    },
    {
      "anonymous": false,
      "inputs": [
        {
          "indexed": false,
          "internalType": "address",
          "name": "_to",
          "type": "address"
        },
        {
          "indexed": false,
          "internalType": "uint256",
          "name": "_amount",
          "type": "uint256"
        },
        {
          "indexed": false,
          "internalType": "uint256",
          "name": "timestamp",
          "type": "uint256"
        }
      ],
      "name": "WithdrawUsdt",
      "type": "event"
    },
    {
      "inputs": [],
      "name": "freeze",
      "outputs": [],
      "stateMutability": "nonpayable",
      "type": "function"
    },
    {
      "inputs": [
        {
          "internalType": "address",
          "name": "_address",
          "type": "address"
        }
      ],
      "name": "getPledged",
      "outputs": [
        {
          "internalType": "uint256",
          "name": "",
          "type": "uint256"
        }
      ],
      "stateMutability": "view",
      "type": "function"
    },
    {
      "inputs": [],
      "name": "getPrice",
      "outputs": [
        {
          "internalType": "uint256",
          "name": "",
          "type": "uint256"
        }
      ],
      "stateMutability": "view",
      "type": "function"
    },
    {
      "inputs": [],
      "name": "getTotalPledgedCount",
      "outputs": [
        {
          "internalType": "uint256",
          "name": "",
          "type": "uint256"
        }
      ],
      "stateMutability": "view",
      "type": "function"
    },
    {
      "inputs": [],
      "name": "getTotalSupply",
      "outputs": [
        {
          "internalType": "uint256",
          "name": "",
          "type": "uint256"
        }
      ],
      "stateMutability": "view",
      "type": "function"
    },
    {
      "inputs": [],
      "name": "owner",
      "outputs": [
        {
          "internalType": "address",
          "name": "",
          "type": "address"
        }
      ],
      "stateMutability": "view",
      "type": "function"
    },
    {
      "inputs": [
        {
          "internalType": "uint256",
          "name": "_amount",
          "type": "uint256"
        }
      ],
      "name": "pledgeUsdc",
      "outputs": [
        {
          "internalType": "bool",
          "name": "",
          "type": "bool"
        }
      ],
      "stateMutability": "nonpayable",
      "type": "function"
    },
    {
      "inputs": [
        {
          "internalType": "uint256",
          "name": "_amount",
          "type": "uint256"
        }
      ],
      "name": "pledgeUsdt",
      "outputs": [
        {
          "internalType": "bool",
          "name": "",
          "type": "bool"
        }
      ],
      "stateMutability": "nonpayable",
      "type": "function"
    },
    {
      "inputs": [],
      "name": "renounceOwnership",
      "outputs": [],
      "stateMutability": "nonpayable",
      "type": "function"
    },
    {
      "inputs": [
        {
          "internalType": "uint256",
          "name": "_newPrice",
          "type": "uint256"
        }
      ],
      "name": "setPrice",
      "outputs": [
        {
          "internalType": "uint256",
          "name": "",
          "type": "uint256"
        }
      ],
      "stateMutability": "nonpayable",
      "type": "function"
    },
    {
      "inputs": [
        {
          "internalType": "uint256",
          "name": "_supply",
          "type": "uint256"
        }
      ],
      "name": "setTotalSupply",
      "outputs": [
        {
          "internalType": "uint256",
          "name": "",
          "type": "uint256"
        }
      ],
      "stateMutability": "nonpayable",
      "type": "function"
    },
    {
      "inputs": [
        {
          "internalType": "address",
          "name": "newOwner",
          "type": "address"
        }
      ],
      "name": "transferOwnership",
      "outputs": [],
      "stateMutability": "nonpayable",
      "type": "function"
    },
    {
      "inputs": [],
      "name": "unfreeze",
      "outputs": [],
      "stateMutability": "nonpayable",
      "type": "function"
    },
    {
      "inputs": [],
      "name": "withdrawUsdc",
      "outputs": [
        {
          "internalType": "bool",
          "name": "",
          "type": "bool"
        }
      ],
      "stateMutability": "nonpayable",
      "type": "function"
    },
    {
      "inputs": [],
      "name": "withdrawUsdt",
      "outputs": [
        {
          "internalType": "bool",
          "name": "",
          "type": "bool"
        }
      ],
      "stateMutability": "nonpayable",
      "type": "function"
    }
  ],
  "bytecode": {
    "object": "0x60806040526003805460ff1916600117905534801561001d57600080fd5b506040516110a53803806110a583398101604081905261003c91610117565b338061006257604051631e4fbdf760e01b81526000600482015260240160405180910390fd5b61006b816100ab565b5060018055600880546001600160a01b039586166001600160a01b031991821617909155600780549490951693169290921790925560045560065561015a565b600080546001600160a01b038381166001600160a01b0319831681178455604051919092169283917f8be0079c531659141344cd1fd0a4f28419497f9722a3daafe3b4186f6b6457e09190a35050565b80516001600160a01b038116811461011257600080fd5b919050565b6000806000806080858703121561012d57600080fd5b610136856100fb565b9350610144602086016100fb565b6040860151606090960151949790965092505050565b610f3c806101696000396000f3fe608060405234801561001057600080fd5b50600436106100f55760003560e01c806398d5fdca11610097578063c4e41b2211610066578063c4e41b22146101c8578063f2fde38b146101d0578063f7ea7a3d146101e3578063fee84d4e146101f657600080fd5b806398d5fdca14610171578063a5cdd53614610179578063ae47d7ce146101a2578063c47797e0146101b557600080fd5b80636a28f000116100d35780636a28f00014610133578063715018a61461013b5780638da5cb5b1461014357806391b7f5ed1461015e57600080fd5b806338b78105146100fa57806362a5af3b146101115780636865b8e71461011b575b600080fd5b6005545b6040519081526020015b60405180910390f35b6101196101fe565b005b61012361029b565b6040519015158152602001610108565b61011961043c565b6101196104c4565b6000546040516001600160a01b039091168152602001610108565b6100fe61016c366004610d1d565b6104d8565b6004546100fe565b6100fe610187366004610d36565b6001600160a01b031660009081526002602052604090205490565b6101236101b0366004610d1d565b6105c2565b6101236101c3366004610d1d565b610833565b6006546100fe565b6101196101de366004610d36565b610a59565b6100fe6101f1366004610d1d565b610a97565b610123610b23565b610206610c76565b60035460ff16156102505760405162461bcd60e51b815260206004820152600f60248201526e20b63932b0b23c90333937bd32b71760891b60448201526064015b60405180910390fd5b6003805460ff19166001908117909155604080519182524260208301527f0d5d65c546908d7b56656ae37e588980e4ac0dbd76144ce2e3dc5a9f94a02b8491015b60405180910390a1565b60006102a5610c76565b6102ad610ca3565b6000546001600160a01b031633146103075760405162461bcd60e51b815260206004820152601d60248201527f4f6e6c792061646d696e2063616e20776974686472617720555344542e0000006044820152606401610247565b6008546040516370a0823160e01b81523060048201526000916001600160a01b0316906370a0823190602401602060405180830381865afa158015610350573d6000803e3d6000fd5b505050506040513d601f19601f820116820180604052508101906103749190610d66565b6040805133815260208101839052428183015290519192507fd145601520053a6cbded7c98f542240fdb9fce419cbeee1e1c264cdf4237fd21919081900360600190a160085460405163a9059cbb60e01b8152336004820152602481018390526001600160a01b039091169063a9059cbb906044015b6020604051808303816000875af1158015610409573d6000803e3d6000fd5b505050506040513d601f19601f8201168201806040525081019061042d9190610d7f565b91505061043960018055565b90565b610444610c76565b60035460ff166104845760405162461bcd60e51b815260206004820152600b60248201526a2737ba10333937bd32b71760a91b6044820152606401610247565b6003805460ff1916905560408051600081524260208201527fc8b85755fc66d02ba3b35e91568edb1ad25920be8fdc327cadd6d789efae72589101610291565b6104cc610c76565b6104d66000610ccd565b565b60006104e2610c76565b60035460ff1615806104fe57506000546001600160a01b031633145b61051a5760405162461bcd60e51b815260040161024790610da1565b600082116105745760405162461bcd60e51b815260206004820152602160248201527f4e6577207072696365206d7573742062652067726561746572207468616e20306044820152601760f91b6064820152608401610247565b60045460408051918252602082018490524282820152517f22db173e2a8b7fa2d933790c01e64878b79e267d813bb3227a15b1c7ac404ffe9181900360600190a1506004819055805b919050565b60006105cc610ca3565b60035460ff1615806105e857506000546001600160a01b031633145b6106045760405162461bcd60e51b815260040161024790610da1565b6004546106119083610e08565b1561062e5760405162461bcd60e51b815260040161024790610e1c565b60006004548361063e9190610e6e565b9050600654816005546106519190610e82565b1061066e5760405162461bcd60e51b815260040161024790610ea9565b6008546040516370a0823160e01b81523360048201526001600160a01b03909116906370a0823190602401602060405180830381865afa1580156106b6573d6000803e3d6000fd5b505050506040513d601f19601f820116820180604052508101906106da9190610d66565b8311156107295760405162461bcd60e51b815260206004820152601a60248201527f496e73756666696369656e7420555344542062616c616e63652e0000000000006044820152606401610247565b33600090815260026020526040902054610744908490610e82565b33600090815260026020526040902055600554610762908290610e82565b600555604080513381523060208201529081018490524260608201527fccee74a23cd6da3af81ee833d62b5bc4d56c5def7e9c074fea6ffeae9730e3e59060800160405180910390a16008546040516323b872dd60e01b8152336004820152306024820152604481018590526001600160a01b03909116906323b872dd906064015b6020604051808303816000875af1158015610803573d6000803e3d6000fd5b505050506040513d601f19601f820116820180604052508101906108279190610d7f565b9150506105bd60018055565b600061083d610ca3565b60035460ff16158061085957506000546001600160a01b031633145b6108755760405162461bcd60e51b815260040161024790610da1565b6004546108829083610e08565b1561089f5760405162461bcd60e51b815260040161024790610e1c565b6000600454836108af9190610e6e565b9050600654816005546108c29190610e82565b106108df5760405162461bcd60e51b815260040161024790610ea9565b6007546040516370a0823160e01b81523360048201526001600160a01b03909116906370a0823190602401602060405180830381865afa158015610927573d6000803e3d6000fd5b505050506040513d601f19601f8201168201806040525081019061094b9190610d66565b83111561099a5760405162461bcd60e51b815260206004820152601a60248201527f496e73756666696369656e7420555344542062616c616e63652e0000000000006044820152606401610247565b336000908152600260205260409020546109b5908490610e82565b336000908152600260205260409020556005546109d3908290610e82565b600555604080513381523060208201529081018490524260608201527f54f4902fa5d8aee3d294ee2ffa24d8db87867560acd73a0a3ebe0016de3c9a919060800160405180910390a16007546040516323b872dd60e01b8152336004820152306024820152604481018590526001600160a01b03909116906323b872dd906064016107e4565b610a61610c76565b6001600160a01b038116610a8b57604051631e4fbdf760e01b815260006004820152602401610247565b610a9481610ccd565b50565b6000610aa1610c76565b60035460ff161580610abd57506000546001600160a01b031633145b610ad95760405162461bcd60e51b815260040161024790610da1565b60065460408051918252602082018490524282820152517f2416dd7afd909a6b9e9340961d193271c118040e16870367018c6c5dbd79e1e79181900360600190a150600681905590565b6000610b2d610c76565b610b35610ca3565b6000546001600160a01b03163314610b8f5760405162461bcd60e51b815260206004820152601d60248201527f4f6e6c792061646d696e2063616e20776974686472617720555344432e0000006044820152606401610247565b6007546040516370a0823160e01b81523060048201526000916001600160a01b0316906370a0823190602401602060405180830381865afa158015610bd8573d6000803e3d6000fd5b505050506040513d601f19601f82011682018060405250810190610bfc9190610d66565b6040805133815260208101839052428183015290519192507fc4bbf6281c4940c4212015e253fae8146d9691c7eed6e60a3295bd59cf4b438c919081900360600190a160075460405163a9059cbb60e01b8152336004820152602481018390526001600160a01b039091169063a9059cbb906044016103ea565b6000546001600160a01b031633146104d65760405163118cdaa760e01b8152336004820152602401610247565b600260015403610cc657604051633ee5aeb560e01b815260040160405180910390fd5b6002600155565b600080546001600160a01b038381166001600160a01b0319831681178455604051919092169283917f8be0079c531659141344cd1fd0a4f28419497f9722a3daafe3b4186f6b6457e09190a35050565b600060208284031215610d2f57600080fd5b5035919050565b600060208284031215610d4857600080fd5b81356001600160a01b0381168114610d5f57600080fd5b9392505050565b600060208284031215610d7857600080fd5b5051919050565b600060208284031215610d9157600080fd5b81518015158114610d5f57600080fd5b60208082526031908201527f416c6c207374617465206368616e67696e67207472616e73616374696f6e732060408201527031bab93932b73a363c90333937bd32b71760791b606082015260800190565b634e487b7160e01b600052601260045260246000fd5b600082610e1757610e17610df2565b500690565b60208082526032908201527f506c6564676520616d6f756e74206d7573742062652061206d756c7469706c656040820152711037b31031bab93932b73a10383934b1b29760711b606082015260800190565b600082610e7d57610e7d610df2565b500490565b80820180821115610ea357634e487b7160e01b600052601160045260246000fd5b92915050565b60208082526037908201527f4e6f7420656e6f75676820737570706c792e20436f6e7369646572207265647560408201527f63696e6720796f757220706c6564676520636f756e742e00000000000000000060608201526080019056fea2646970667358221220707a9db9d49fcae1dada7cfa507e99279a621250a9b43ba45134f31beeed87ef64736f6c63430008150033",
    "linkReferences": {}
  },
  "methodIdentifiers": {
    "freeze()": "62a5af3b",
    "getPledged(address)": "a5cdd536",
    "getPrice()": "98d5fdca",
    "getTotalPledgedCount()": "38b78105",
    "getTotalSupply()": "c4e41b22",
    "owner()": "8da5cb5b",
    "pledgeUsdc(uint256)": "c47797e0",
    "pledgeUsdt(uint256)": "ae47d7ce",
    "renounceOwnership()": "715018a6",
    "setPrice(uint256)": "91b7f5ed",
    "setTotalSupply(uint256)": "f7ea7a3d",
    "transferOwnership(address)": "f2fde38b",
    "unfreeze()": "6a28f000",
    "withdrawUsdc()": "fee84d4e",
    "withdrawUsdt()": "6865b8e7"
  },
  "id": 27
}