{
  "abi": [
    {
      "inputs": [
        {
          "internalType": "address",
          "name": "_usdt",
          "type": "address"
        },
        {
          "internalType": "address",
          "name": "_usdc",
          "type": "address"
        },
        {
          "internalType": "uint256",
          "name": "_supply",
          "type": "uint256"
        },
        {
          "internalType": "uint256",
          "name": "_price",
          "type": "uint256"
        }
      ],
      "stateMutability": "nonpayable",
      "type": "constructor"
    },
    {
      "inputs": [
        {
          "internalType": "address",
          "name": "target",
          "type": "address"
        }
      ],
      "name": "AddressEmptyCode",
      "type": "error"
    },
    {
      "inputs": [
        {
          "internalType": "address",
          "name": "account",
          "type": "address"
        }
      ],
      "name": "AddressInsufficientBalance",
      "type": "error"
    },
    {
      "inputs": [],
      "name": "FailedInnerCall",
      "type": "error"
    },
    {
      "inputs": [
        {
          "internalType": "address",
          "name": "owner",
          "type": "address"
        }
      ],
      "name": "OwnableInvalidOwner",
      "type": "error"
    },
    {
      "inputs": [
        {
          "internalType": "address",
          "name": "account",
          "type": "address"
        }
      ],
      "name": "OwnableUnauthorizedAccount",
      "type": "error"
    },
    {
      "inputs": [],
      "name": "ReentrancyGuardReentrantCall",
      "type": "error"
    },
    {
      "inputs": [
        {
          "internalType": "address",
          "name": "token",
          "type": "address"
        }
      ],
      "name": "SafeERC20FailedOperation",
      "type": "error"
    },
    {
      "anonymous": false,
      "inputs": [
        {
          "indexed": false,
          "internalType": "bool",
          "name": "_status",
          "type": "bool"
        },
        {
          "indexed": false,
          "internalType": "uint256",
          "name": "_timestamp",
          "type": "uint256"
        }
      ],
      "name": "Freeze",
      "type": "event"
    },
    {
      "anonymous": false,
      "inputs": [
        {
          "indexed": true,
          "internalType": "address",
          "name": "previousOwner",
          "type": "address"
        },
        {
          "indexed": true,
          "internalType": "address",
          "name": "newOwner",
          "type": "address"
        }
      ],
      "name": "OwnershipTransferred",
      "type": "event"
    },
    {
      "anonymous": false,
      "inputs": [
        {
          "indexed": false,
          "internalType": "address",
          "name": "_from",
          "type": "address"
        },
        {
          "indexed": false,
          "internalType": "address",
          "name": "_to",
          "type": "address"
        },
        {
          "indexed": false,
          "internalType": "uint256",
          "name": "_amount",
          "type": "uint256"
        },
        {
          "indexed": false,
          "internalType": "uint256",
          "name": "_timestamp",
          "type": "uint256"
        }
      ],
      "name": "PledgeUsdc",
      "type": "event"
    },
    {
      "anonymous": false,
      "inputs": [
        {
          "indexed": false,
          "internalType": "address",
          "name": "_from",
          "type": "address"
        },
        {
          "indexed": false,
          "internalType": "address",
          "name": "_to",
          "type": "address"
        },
        {
          "indexed": false,
          "internalType": "uint256",
          "name": "_amount",
          "type": "uint256"
        },
        {
          "indexed": false,
          "internalType": "uint256",
          "name": "_timestamp",
          "type": "uint256"
        }
      ],
      "name": "PledgeUsdt",
      "type": "event"
    },
    {
      "anonymous": false,
      "inputs": [
        {
          "indexed": false,
          "internalType": "uint256",
          "name": "_old",
          "type": "uint256"
        },
        {
          "indexed": false,
          "internalType": "uint256",
          "name": "_new",
          "type": "uint256"
        },
        {
          "indexed": false,
          "internalType": "uint256",
          "name": "_timestamp",
          "type": "uint256"
        }
      ],
      "name": "PledgedCountSet",
      "type": "event"
    },
    {
      "anonymous": false,
      "inputs": [
        {
          "indexed": false,
          "internalType": "uint256",
          "name": "_old",
          "type": "uint256"
        },
        {
          "indexed": false,
          "internalType": "uint256",
          "name": "_new",
          "type": "uint256"
        },
        {
          "indexed": false,
          "internalType": "uint256",
          "name": "_timestamp",
          "type": "uint256"
        }
      ],
      "name": "PriceSet",
      "type": "event"
    },
    {
      "anonymous": false,
      "inputs": [
        {
          "indexed": false,
          "internalType": "uint256",
          "name": "_old",
          "type": "uint256"
        },
        {
          "indexed": false,
          "internalType": "uint256",
          "name": "_new",
          "type": "uint256"
        },
        {
          "indexed": false,
          "internalType": "uint256",
          "name": "_timestamp",
          "type": "uint256"
        }
      ],
      "name": "SupplySet",
      "type": "event"
    },
    {
      "anonymous": false,
      "inputs": [
        {
          "indexed": false,
          "internalType": "bool",
          "name": "_status",
          "type": "bool"
        },
        {
          "indexed": false,
          "internalType": "uint256",
          "name": "_timestamp",
          "type": "uint256"
        }
      ],
      "name": "Unfreeze",
      "type": "event"
    },
    {
      "anonymous": false,
      "inputs": [
        {
          "indexed": false,
          "internalType": "address",
          "name": "_to",
          "type": "address"
        },
        {
          "indexed": false,
          "internalType": "uint256",
          "name": "_amount",
          "type": "uint256"
        },
        {
          "indexed": false,
          "internalType": "uint256",
          "name": "_timestamp",
          "type": "uint256"
        }
      ],
      "name": "WithdrawUsdc",
      "type": "event"
    },
    {
      "anonymous": false,
      "inputs": [
        {
          "indexed": false,
          "internalType": "address",
          "name": "_to",
          "type": "address"
        },
        {
          "indexed": false,
          "internalType": "uint256",
          "name": "_amount",
          "type": "uint256"
        },
        {
          "indexed": false,
          "internalType": "uint256",
          "name": "_timestamp",
          "type": "uint256"
        }
      ],
      "name": "WithdrawUsdt",
      "type": "event"
    },
    {
      "inputs": [
        {
          "internalType": "address",
          "name": "_spender",
          "type": "address"
        },
        {
          "internalType": "uint256",
          "name": "_value",
          "type": "uint256"
        }
      ],
      "name": "approveUsdc",
      "outputs": [],
      "stateMutability": "nonpayable",
      "type": "function"
    },
    {
      "inputs": [
        {
          "internalType": "address",
          "name": "_spender",
          "type": "address"
        },
        {
          "internalType": "uint256",
          "name": "_value",
          "type": "uint256"
        }
      ],
      "name": "approveUsdt",
      "outputs": [],
      "stateMutability": "nonpayable",
      "type": "function"
    },
    {
      "inputs": [],
      "name": "freeze",
      "outputs": [],
      "stateMutability": "nonpayable",
      "type": "function"
    },
    {
      "inputs": [],
      "name": "getIsFrozen",
      "outputs": [
        {
          "internalType": "bool",
          "name": "",
          "type": "bool"
        }
      ],
      "stateMutability": "view",
      "type": "function"
    },
    {
      "inputs": [
        {
          "internalType": "address",
          "name": "_address",
          "type": "address"
        }
      ],
      "name": "getPledged",
      "outputs": [
        {
          "internalType": "uint256",
          "name": "",
          "type": "uint256"
        }
      ],
      "stateMutability": "view",
      "type": "function"
    },
    {
      "inputs": [],
      "name": "getPrice",
      "outputs": [
        {
          "internalType": "uint256",
          "name": "",
          "type": "uint256"
        }
      ],
      "stateMutability": "view",
      "type": "function"
    },
    {
      "inputs": [],
      "name": "getTotalPledgedCount",
      "outputs": [
        {
          "internalType": "uint256",
          "name": "",
          "type": "uint256"
        }
      ],
      "stateMutability": "view",
      "type": "function"
    },
    {
      "inputs": [],
      "name": "getTotalSupply",
      "outputs": [
        {
          "internalType": "uint256",
          "name": "",
          "type": "uint256"
        }
      ],
      "stateMutability": "view",
      "type": "function"
    },
    {
      "inputs": [],
      "name": "owner",
      "outputs": [
        {
          "internalType": "address",
          "name": "",
          "type": "address"
        }
      ],
      "stateMutability": "view",
      "type": "function"
    },
    {
      "inputs": [
        {
          "internalType": "uint256",
          "name": "_amount",
          "type": "uint256"
        }
      ],
      "name": "pledgeUsdc",
      "outputs": [],
      "stateMutability": "nonpayable",
      "type": "function"
    },
    {
      "inputs": [
        {
          "internalType": "uint256",
          "name": "_amount",
          "type": "uint256"
        }
      ],
      "name": "pledgeUsdt",
      "outputs": [],
      "stateMutability": "nonpayable",
      "type": "function"
    },
    {
      "inputs": [],
      "name": "renounceOwnership",
      "outputs": [],
      "stateMutability": "nonpayable",
      "type": "function"
    },
    {
      "inputs": [
        {
          "internalType": "uint256",
          "name": "_newPrice",
          "type": "uint256"
        }
      ],
      "name": "setPrice",
      "outputs": [
        {
          "internalType": "uint256",
          "name": "",
          "type": "uint256"
        }
      ],
      "stateMutability": "nonpayable",
      "type": "function"
    },
    {
      "inputs": [
        {
          "internalType": "uint256",
          "name": "_newTotalPledgedCount",
          "type": "uint256"
        }
      ],
      "name": "setTotalPledgedCount",
      "outputs": [
        {
          "internalType": "uint256",
          "name": "",
          "type": "uint256"
        }
      ],
      "stateMutability": "nonpayable",
      "type": "function"
    },
    {
      "inputs": [
        {
          "internalType": "uint256",
          "name": "_newSupply",
          "type": "uint256"
        }
      ],
      "name": "setTotalSupply",
      "outputs": [
        {
          "internalType": "uint256",
          "name": "",
          "type": "uint256"
        }
      ],
      "stateMutability": "nonpayable",
      "type": "function"
    },
    {
      "inputs": [
        {
          "internalType": "address",
          "name": "newOwner",
          "type": "address"
        }
      ],
      "name": "transferOwnership",
      "outputs": [],
      "stateMutability": "nonpayable",
      "type": "function"
    },
    {
      "inputs": [],
      "name": "unfreeze",
      "outputs": [],
      "stateMutability": "nonpayable",
      "type": "function"
    },
    {
      "inputs": [],
      "name": "withdrawUsdc",
      "outputs": [
        {
          "internalType": "bool",
          "name": "",
          "type": "bool"
        }
      ],
      "stateMutability": "nonpayable",
      "type": "function"
    },
    {
      "inputs": [],
      "name": "withdrawUsdt",
      "outputs": [
        {
          "internalType": "bool",
          "name": "",
          "type": "bool"
        }
      ],
      "stateMutability": "nonpayable",
      "type": "function"
    }
  ],
  "bytecode": {
    "object": "0x60806040526003805460ff191660011790553480156200001e57600080fd5b506040516200168438038062001684833981016040819052620000419162000121565b33806200006857604051631e4fbdf760e01b81526000600482015260240160405180910390fd5b6200007381620000b4565b5060018055600880546001600160a01b039586166001600160a01b031991821617909155600780549490951693169290921790925560045560065562000169565b600080546001600160a01b038381166001600160a01b0319831681178455604051919092169283917f8be0079c531659141344cd1fd0a4f28419497f9722a3daafe3b4186f6b6457e09190a35050565b80516001600160a01b03811681146200011c57600080fd5b919050565b600080600080608085870312156200013857600080fd5b620001438562000104565b9350620001536020860162000104565b6040860151606090960151949790965092505050565b61150b80620001796000396000f3fe608060405234801561001057600080fd5b50600436106101215760003560e01c806398d5fdca116100ad578063dddd894211610071578063dddd894214610216578063e613610514610229578063f2fde38b1461023c578063f7ea7a3d1461024f578063fee84d4e1461026257600080fd5b806398d5fdca146101b7578063a5cdd536146101bf578063ae47d7ce146101e8578063c47797e0146101fb578063c4e41b221461020e57600080fd5b80636865b8e7116100f45780636865b8e7146101715780636a28f00014610179578063715018a6146101815780638da5cb5b1461018957806391b7f5ed146101a457600080fd5b8063236fc8ad146101265780632903459d1461014257806338b781051461015757806362a5af3b14610169575b600080fd5b60035460ff165b60405190151581526020015b60405180910390f35b6101556101503660046112ae565b61026a565b005b6005545b604051908152602001610139565b610155610296565b61012d610333565b6101556104d4565b61015561055c565b6000546040516001600160a01b039091168152602001610139565b61015b6101b23660046112d8565b610570565b60045461015b565b61015b6101cd3660046112f1565b6001600160a01b031660009081526002602052604090205490565b6101556101f63660046112d8565b61065a565b6101556102093660046112d8565b610926565b60065461015b565b61015b6102243660046112d8565b610be5565b6101556102373660046112ae565b610c71565b61015561024a3660046112f1565b610c90565b61015b61025d3660046112d8565b610ccb565b61012d610d57565b610272610eaa565b600754610289906001600160a01b03168383610ed4565b61029260018055565b5050565b61029e610f98565b60035460ff16156102e85760405162461bcd60e51b815260206004820152600f60248201526e20b63932b0b23c90333937bd32b71760891b60448201526064015b60405180910390fd5b6003805460ff19166001908117909155604080519182524260208301527f0d5d65c546908d7b56656ae37e588980e4ac0dbd76144ce2e3dc5a9f94a02b8491015b60405180910390a1565b600061033d610f98565b610345610eaa565b6000546001600160a01b0316331461039f5760405162461bcd60e51b815260206004820152601d60248201527f4f6e6c792061646d696e2063616e20776974686472617720555344542e00000060448201526064016102df565b6008546040516370a0823160e01b81523060048201526000916001600160a01b0316906370a0823190602401602060405180830381865afa1580156103e8573d6000803e3d6000fd5b505050506040513d601f19601f8201168201806040525081019061040c919061130c565b6040805133815260208101839052428183015290519192507fd145601520053a6cbded7c98f542240fdb9fce419cbeee1e1c264cdf4237fd21919081900360600190a160085460405163a9059cbb60e01b8152336004820152602481018390526001600160a01b039091169063a9059cbb906044015b6020604051808303816000875af11580156104a1573d6000803e3d6000fd5b505050506040513d601f19601f820116820180604052508101906104c59190611325565b9150506104d160018055565b90565b6104dc610f98565b60035460ff1661051c5760405162461bcd60e51b815260206004820152600b60248201526a2737ba10333937bd32b71760a91b60448201526064016102df565b6003805460ff1916905560408051600081524260208201527fc8b85755fc66d02ba3b35e91568edb1ad25920be8fdc327cadd6d789efae72589101610329565b610564610f98565b61056e6000610fc5565b565b600061057a610f98565b60035460ff16158061059657506000546001600160a01b031633145b6105b25760405162461bcd60e51b81526004016102df90611347565b6000821161060c5760405162461bcd60e51b815260206004820152602160248201527f4e6577207072696365206d7573742062652067726561746572207468616e20306044820152601760f91b60648201526084016102df565b60045460408051918252602082018490524282820152517f22db173e2a8b7fa2d933790c01e64878b79e267d813bb3227a15b1c7ac404ffe9181900360600190a1506004819055805b919050565b610662610eaa565b60035460ff16158061067e57506000546001600160a01b031633145b61069a5760405162461bcd60e51b81526004016102df90611347565b6004546106a790826113ae565b156106c45760405162461bcd60e51b81526004016102df906113c2565b6000600454826106d49190611414565b9050600654816005546106e79190611428565b106107045760405162461bcd60e51b81526004016102df90611449565b600854604051636eb1769f60e11b815233600482015230602482015283916001600160a01b03169063dd62ed3e90604401602060405180830381865afa158015610752573d6000803e3d6000fd5b505050506040513d601f19601f82011682018060405250810190610776919061130c565b10156107c45760405162461bcd60e51b815260206004820152601a60248201527f5553445420616c6c6f77616e6365206e6f7420656e6f7567682e00000000000060448201526064016102df565b6008546040516370a0823160e01b81523360048201526001600160a01b03909116906370a0823190602401602060405180830381865afa15801561080c573d6000803e3d6000fd5b505050506040513d601f19601f82011682018060405250810190610830919061130c565b82111561087f5760405162461bcd60e51b815260206004820152601a60248201527f496e73756666696369656e7420555344542062616c616e63652e00000000000060448201526064016102df565b3360009081526002602052604090205461089a908390611428565b336000908152600260205260409020556005546108b8908290611428565b600555604080513381523060208201529081018390524260608201527fccee74a23cd6da3af81ee833d62b5bc4d56c5def7e9c074fea6ffeae9730e3e59060800160405180910390a1600854610919906001600160a01b0316333085611015565b5061092360018055565b50565b61092e610eaa565b60035460ff16158061094a57506000546001600160a01b031633145b6109665760405162461bcd60e51b81526004016102df90611347565b60045461097390826113ae565b156109905760405162461bcd60e51b81526004016102df906113c2565b6000600454826109a09190611414565b9050600654816005546109b39190611428565b106109d05760405162461bcd60e51b81526004016102df90611449565b600754604051636eb1769f60e11b815233600482015230602482015283916001600160a01b03169063dd62ed3e90604401602060405180830381865afa158015610a1e573d6000803e3d6000fd5b505050506040513d601f19601f82011682018060405250810190610a42919061130c565b1015610a905760405162461bcd60e51b815260206004820152601a60248201527f5553444320616c6c6f77616e6365206e6f7420656e6f7567682e00000000000060448201526064016102df565b6007546040516370a0823160e01b81523360048201526001600160a01b03909116906370a0823190602401602060405180830381865afa158015610ad8573d6000803e3d6000fd5b505050506040513d601f19601f82011682018060405250810190610afc919061130c565b821115610b4b5760405162461bcd60e51b815260206004820152601a60248201527f496e73756666696369656e7420555344432062616c616e63652e00000000000060448201526064016102df565b33600090815260026020526040902054610b66908390611428565b33600090815260026020526040902055600554610b84908290611428565b600555604080513381523060208201529081018390524260608201527f54f4902fa5d8aee3d294ee2ffa24d8db87867560acd73a0a3ebe0016de3c9a919060800160405180910390a1600754610919906001600160a01b0316333085611015565b6000610bef610f98565b60035460ff161580610c0b57506000546001600160a01b031633145b610c275760405162461bcd60e51b81526004016102df90611347565b60055460408051918252602082018490524282820152517f457fb56c616802a3e226649c2be4e9d9b0df661b5d4026493c302edffd604f539181900360600190a150600581905590565b610c79610eaa565b600854610289906001600160a01b03168383610ed4565b610c98610f98565b6001600160a01b038116610cc257604051631e4fbdf760e01b8152600060048201526024016102df565b61092381610fc5565b6000610cd5610f98565b60035460ff161580610cf157506000546001600160a01b031633145b610d0d5760405162461bcd60e51b81526004016102df90611347565b60065460408051918252602082018490524282820152517f2416dd7afd909a6b9e9340961d193271c118040e16870367018c6c5dbd79e1e79181900360600190a150600681905590565b6000610d61610f98565b610d69610eaa565b6000546001600160a01b03163314610dc35760405162461bcd60e51b815260206004820152601d60248201527f4f6e6c792061646d696e2063616e20776974686472617720555344432e00000060448201526064016102df565b6007546040516370a0823160e01b81523060048201526000916001600160a01b0316906370a0823190602401602060405180830381865afa158015610e0c573d6000803e3d6000fd5b505050506040513d601f19601f82011682018060405250810190610e30919061130c565b6040805133815260208101839052428183015290519192507fc4bbf6281c4940c4212015e253fae8146d9691c7eed6e60a3295bd59cf4b438c919081900360600190a160075460405163a9059cbb60e01b8152336004820152602481018390526001600160a01b039091169063a9059cbb90604401610482565b600260015403610ecd57604051633ee5aeb560e01b815260040160405180910390fd5b6002600155565b604080516001600160a01b038416602482015260448082018490528251808303909101815260649091019091526020810180516001600160e01b031663095ea7b360e01b179052610f25848261104e565b610f92576040516001600160a01b03848116602483015260006044830152610f8891869182169063095ea7b3906064015b604051602081830303815290604052915060e01b6020820180516001600160e01b0383818316178352505050506110f8565b610f9284826110f8565b50505050565b6000546001600160a01b0316331461056e5760405163118cdaa760e01b81523360048201526024016102df565b600080546001600160a01b038381166001600160a01b0319831681178455604051919092169283917f8be0079c531659141344cd1fd0a4f28419497f9722a3daafe3b4186f6b6457e09190a35050565b6040516001600160a01b038481166024830152838116604483015260648201839052610f929186918216906323b872dd90608401610f56565b6000806000846001600160a01b03168460405161106b91906114a6565b6000604051808303816000865af19150503d80600081146110a8576040519150601f19603f3d011682016040523d82523d6000602084013e6110ad565b606091505b50915091508180156110d75750805115806110d75750808060200190518101906110d79190611325565b80156110ed57506000856001600160a01b03163b115b925050505b92915050565b600061110d6001600160a01b03841683611160565b905080516000141580156111325750808060200190518101906111309190611325565b155b1561115b57604051635274afe760e01b81526001600160a01b03841660048201526024016102df565b505050565b606061116e83836000611175565b9392505050565b60608147101561119a5760405163cd78605960e01b81523060048201526024016102df565b600080856001600160a01b031684866040516111b691906114a6565b60006040518083038185875af1925050503d80600081146111f3576040519150601f19603f3d011682016040523d82523d6000602084013e6111f8565b606091505b5091509150611208868383611212565b9695505050505050565b606082611227576112228261126e565b61116e565b815115801561123e57506001600160a01b0384163b155b1561126757604051639996b31560e01b81526001600160a01b03851660048201526024016102df565b508061116e565b80511561127e5780518082602001fd5b604051630a12f52160e11b815260040160405180910390fd5b80356001600160a01b038116811461065557600080fd5b600080604083850312156112c157600080fd5b6112ca83611297565b946020939093013593505050565b6000602082840312156112ea57600080fd5b5035919050565b60006020828403121561130357600080fd5b61116e82611297565b60006020828403121561131e57600080fd5b5051919050565b60006020828403121561133757600080fd5b8151801515811461116e57600080fd5b60208082526031908201527f416c6c207374617465206368616e67696e67207472616e73616374696f6e732060408201527031bab93932b73a363c90333937bd32b71760791b606082015260800190565b634e487b7160e01b600052601260045260246000fd5b6000826113bd576113bd611398565b500690565b60208082526032908201527f506c6564676520616d6f756e74206d7573742062652061206d756c7469706c656040820152711037b31031bab93932b73a10383934b1b29760711b606082015260800190565b60008261142357611423611398565b500490565b808201808211156110f257634e487b7160e01b600052601160045260246000fd5b60208082526037908201527f4e6f7420656e6f75676820737570706c792e20436f6e7369646572207265647560408201527f63696e6720796f757220706c6564676520636f756e742e000000000000000000606082015260800190565b6000825160005b818110156114c757602081860181015185830152016114ad565b50600092019182525091905056fea264697066735822122081db89a5bfa5788b9c671bd2357aef263b1d43f8a6039251863b365ad249b9c564736f6c63430008150033",
    "linkReferences": {}
  },
  "methodIdentifiers": {
    "approveUsdc(address,uint256)": "2903459d",
    "approveUsdt(address,uint256)": "e6136105",
    "freeze()": "62a5af3b",
    "getIsFrozen()": "236fc8ad",
    "getPledged(address)": "a5cdd536",
    "getPrice()": "98d5fdca",
    "getTotalPledgedCount()": "38b78105",
    "getTotalSupply()": "c4e41b22",
    "owner()": "8da5cb5b",
    "pledgeUsdc(uint256)": "c47797e0",
    "pledgeUsdt(uint256)": "ae47d7ce",
    "renounceOwnership()": "715018a6",
    "setPrice(uint256)": "91b7f5ed",
    "setTotalPledgedCount(uint256)": "dddd8942",
    "setTotalSupply(uint256)": "f7ea7a3d",
    "transferOwnership(address)": "f2fde38b",
    "unfreeze()": "6a28f000",
    "withdrawUsdc()": "fee84d4e",
    "withdrawUsdt()": "6865b8e7"
  },
  "id": 32
}