{
  "abi": [
    {
      "inputs": [
        {
          "internalType": "address",
          "name": "_usdt",
          "type": "address"
        },
        {
          "internalType": "address",
          "name": "_usdc",
          "type": "address"
        },
        {
          "internalType": "uint256",
          "name": "_supply",
          "type": "uint256"
        },
        {
          "internalType": "uint256",
          "name": "_price",
          "type": "uint256"
        }
      ],
      "stateMutability": "nonpayable",
      "type": "constructor"
    },
    {
      "inputs": [
        {
          "internalType": "address",
          "name": "owner",
          "type": "address"
        }
      ],
      "name": "OwnableInvalidOwner",
      "type": "error"
    },
    {
      "inputs": [
        {
          "internalType": "address",
          "name": "account",
          "type": "address"
        }
      ],
      "name": "OwnableUnauthorizedAccount",
      "type": "error"
    },
    {
      "inputs": [],
      "name": "ReentrancyGuardReentrantCall",
      "type": "error"
    },
    {
      "anonymous": false,
      "inputs": [
        {
          "indexed": false,
          "internalType": "bool",
          "name": "_status",
          "type": "bool"
        },
        {
          "indexed": false,
          "internalType": "uint256",
          "name": "timestamp",
          "type": "uint256"
        }
      ],
      "name": "Freeze",
      "type": "event"
    },
    {
      "anonymous": false,
      "inputs": [
        {
          "indexed": true,
          "internalType": "address",
          "name": "previousOwner",
          "type": "address"
        },
        {
          "indexed": true,
          "internalType": "address",
          "name": "newOwner",
          "type": "address"
        }
      ],
      "name": "OwnershipTransferred",
      "type": "event"
    },
    {
      "anonymous": false,
      "inputs": [
        {
          "indexed": false,
          "internalType": "address",
          "name": "_from",
          "type": "address"
        },
        {
          "indexed": false,
          "internalType": "address",
          "name": "_to",
          "type": "address"
        },
        {
          "indexed": false,
          "internalType": "uint256",
          "name": "_amount",
          "type": "uint256"
        },
        {
          "indexed": false,
          "internalType": "uint256",
          "name": "timestamp",
          "type": "uint256"
        }
      ],
      "name": "PledgeUsdc",
      "type": "event"
    },
    {
      "anonymous": false,
      "inputs": [
        {
          "indexed": false,
          "internalType": "address",
          "name": "_from",
          "type": "address"
        },
        {
          "indexed": false,
          "internalType": "address",
          "name": "_to",
          "type": "address"
        },
        {
          "indexed": false,
          "internalType": "uint256",
          "name": "_amount",
          "type": "uint256"
        },
        {
          "indexed": false,
          "internalType": "uint256",
          "name": "timestamp",
          "type": "uint256"
        }
      ],
      "name": "PledgeUsdt",
      "type": "event"
    },
    {
      "anonymous": false,
      "inputs": [
        {
          "indexed": false,
          "internalType": "uint256",
          "name": "_old",
          "type": "uint256"
        },
        {
          "indexed": false,
          "internalType": "uint256",
          "name": "_new",
          "type": "uint256"
        },
        {
          "indexed": false,
          "internalType": "uint256",
          "name": "timestamp",
          "type": "uint256"
        }
      ],
      "name": "PledgedCountSet",
      "type": "event"
    },
    {
      "anonymous": false,
      "inputs": [
        {
          "indexed": false,
          "internalType": "uint256",
          "name": "_old",
          "type": "uint256"
        },
        {
          "indexed": false,
          "internalType": "uint256",
          "name": "_new",
          "type": "uint256"
        },
        {
          "indexed": false,
          "internalType": "uint256",
          "name": "timestamp",
          "type": "uint256"
        }
      ],
      "name": "PriceSet",
      "type": "event"
    },
    {
      "anonymous": false,
      "inputs": [
        {
          "indexed": false,
          "internalType": "uint256",
          "name": "_old",
          "type": "uint256"
        },
        {
          "indexed": false,
          "internalType": "uint256",
          "name": "_new",
          "type": "uint256"
        },
        {
          "indexed": false,
          "internalType": "uint256",
          "name": "timestamp",
          "type": "uint256"
        }
      ],
      "name": "SupplySet",
      "type": "event"
    },
    {
      "anonymous": false,
      "inputs": [
        {
          "indexed": false,
          "internalType": "bool",
          "name": "_status",
          "type": "bool"
        },
        {
          "indexed": false,
          "internalType": "uint256",
          "name": "timestamp",
          "type": "uint256"
        }
      ],
      "name": "Unfreeze",
      "type": "event"
    },
    {
      "anonymous": false,
      "inputs": [
        {
          "indexed": false,
          "internalType": "address",
          "name": "_to",
          "type": "address"
        },
        {
          "indexed": false,
          "internalType": "uint256",
          "name": "_amount",
          "type": "uint256"
        },
        {
          "indexed": false,
          "internalType": "uint256",
          "name": "timestamp",
          "type": "uint256"
        }
      ],
      "name": "WithdrawUsdc",
      "type": "event"
    },
    {
      "anonymous": false,
      "inputs": [
        {
          "indexed": false,
          "internalType": "address",
          "name": "_to",
          "type": "address"
        },
        {
          "indexed": false,
          "internalType": "uint256",
          "name": "_amount",
          "type": "uint256"
        },
        {
          "indexed": false,
          "internalType": "uint256",
          "name": "timestamp",
          "type": "uint256"
        }
      ],
      "name": "WithdrawUsdt",
      "type": "event"
    },
    {
      "inputs": [],
      "name": "freeze",
      "outputs": [],
      "stateMutability": "nonpayable",
      "type": "function"
    },
    {
      "inputs": [],
      "name": "getIsFrozen",
      "outputs": [
        {
          "internalType": "bool",
          "name": "",
          "type": "bool"
        }
      ],
      "stateMutability": "view",
      "type": "function"
    },
    {
      "inputs": [
        {
          "internalType": "address",
          "name": "_address",
          "type": "address"
        }
      ],
      "name": "getPledged",
      "outputs": [
        {
          "internalType": "uint256",
          "name": "",
          "type": "uint256"
        }
      ],
      "stateMutability": "view",
      "type": "function"
    },
    {
      "inputs": [],
      "name": "getPrice",
      "outputs": [
        {
          "internalType": "uint256",
          "name": "",
          "type": "uint256"
        }
      ],
      "stateMutability": "view",
      "type": "function"
    },
    {
      "inputs": [],
      "name": "getTotalPledgedCount",
      "outputs": [
        {
          "internalType": "uint256",
          "name": "",
          "type": "uint256"
        }
      ],
      "stateMutability": "view",
      "type": "function"
    },
    {
      "inputs": [],
      "name": "getTotalSupply",
      "outputs": [
        {
          "internalType": "uint256",
          "name": "",
          "type": "uint256"
        }
      ],
      "stateMutability": "view",
      "type": "function"
    },
    {
      "inputs": [],
      "name": "owner",
      "outputs": [
        {
          "internalType": "address",
          "name": "",
          "type": "address"
        }
      ],
      "stateMutability": "view",
      "type": "function"
    },
    {
      "inputs": [
        {
          "internalType": "uint256",
          "name": "_amount",
          "type": "uint256"
        }
      ],
      "name": "pledgeUsdc",
      "outputs": [
        {
          "internalType": "bool",
          "name": "",
          "type": "bool"
        }
      ],
      "stateMutability": "nonpayable",
      "type": "function"
    },
    {
      "inputs": [
        {
          "internalType": "uint256",
          "name": "_amount",
          "type": "uint256"
        }
      ],
      "name": "pledgeUsdt",
      "outputs": [
        {
          "internalType": "bool",
          "name": "",
          "type": "bool"
        }
      ],
      "stateMutability": "nonpayable",
      "type": "function"
    },
    {
      "inputs": [],
      "name": "renounceOwnership",
      "outputs": [],
      "stateMutability": "nonpayable",
      "type": "function"
    },
    {
      "inputs": [
        {
          "internalType": "uint256",
          "name": "_newPrice",
          "type": "uint256"
        }
      ],
      "name": "setPrice",
      "outputs": [
        {
          "internalType": "uint256",
          "name": "",
          "type": "uint256"
        }
      ],
      "stateMutability": "nonpayable",
      "type": "function"
    },
    {
      "inputs": [
        {
          "internalType": "uint256",
          "name": "_newTotalPledgedCount",
          "type": "uint256"
        }
      ],
      "name": "setTotalPledgedCount",
      "outputs": [
        {
          "internalType": "uint256",
          "name": "",
          "type": "uint256"
        }
      ],
      "stateMutability": "nonpayable",
      "type": "function"
    },
    {
      "inputs": [
        {
          "internalType": "uint256",
          "name": "_newSupply",
          "type": "uint256"
        }
      ],
      "name": "setTotalSupply",
      "outputs": [
        {
          "internalType": "uint256",
          "name": "",
          "type": "uint256"
        }
      ],
      "stateMutability": "nonpayable",
      "type": "function"
    },
    {
      "inputs": [
        {
          "internalType": "address",
          "name": "newOwner",
          "type": "address"
        }
      ],
      "name": "transferOwnership",
      "outputs": [],
      "stateMutability": "nonpayable",
      "type": "function"
    },
    {
      "inputs": [],
      "name": "unfreeze",
      "outputs": [],
      "stateMutability": "nonpayable",
      "type": "function"
    },
    {
      "inputs": [],
      "name": "withdrawUsdc",
      "outputs": [
        {
          "internalType": "bool",
          "name": "",
          "type": "bool"
        }
      ],
      "stateMutability": "nonpayable",
      "type": "function"
    },
    {
      "inputs": [],
      "name": "withdrawUsdt",
      "outputs": [
        {
          "internalType": "bool",
          "name": "",
          "type": "bool"
        }
      ],
      "stateMutability": "nonpayable",
      "type": "function"
    }
  ],
  "bytecode": {
    "object": "0x60806040526003805460ff1916600117905534801561001d57600080fd5b506040516112e13803806112e183398101604081905261003c91610117565b338061006257604051631e4fbdf760e01b81526000600482015260240160405180910390fd5b61006b816100ab565b5060018055600880546001600160a01b039586166001600160a01b031991821617909155600780549490951693169290921790925560045560065561015a565b600080546001600160a01b038381166001600160a01b0319831681178455604051919092169283917f8be0079c531659141344cd1fd0a4f28419497f9722a3daafe3b4186f6b6457e09190a35050565b80516001600160a01b038116811461011257600080fd5b919050565b6000806000806080858703121561012d57600080fd5b610136856100fb565b9350610144602086016100fb565b6040860151606090960151949790965092505050565b611178806101696000396000f3fe608060405234801561001057600080fd5b506004361061010b5760003560e01c806398d5fdca116100a2578063c4e41b2211610071578063c4e41b22146101e5578063dddd8942146101ed578063f2fde38b14610200578063f7ea7a3d14610213578063fee84d4e1461022657600080fd5b806398d5fdca1461018e578063a5cdd53614610196578063ae47d7ce146101bf578063c47797e0146101d257600080fd5b80636a28f000116100de5780636a28f00014610150578063715018a6146101585780638da5cb5b1461016057806391b7f5ed1461017b57600080fd5b8063236fc8ad1461011057806338b781051461012c57806362a5af3b1461013e5780636865b8e714610148575b600080fd5b60035460ff165b60405190151581526020015b60405180910390f35b6005545b604051908152602001610123565b61014661022e565b005b6101176102cb565b61014661046c565b6101466104f4565b6000546040516001600160a01b039091168152602001610123565b610130610189366004610f59565b610508565b600454610130565b6101306101a4366004610f72565b6001600160a01b031660009081526002602052604090205490565b6101176101cd366004610f59565b6105f2565b6101176101e0366004610f59565b610923565b600654610130565b6101306101fb366004610f59565b610c09565b61014661020e366004610f72565b610c95565b610130610221366004610f59565b610cd3565b610117610d5f565b610236610eb2565b60035460ff16156102805760405162461bcd60e51b815260206004820152600f60248201526e20b63932b0b23c90333937bd32b71760891b60448201526064015b60405180910390fd5b6003805460ff19166001908117909155604080519182524260208301527f0d5d65c546908d7b56656ae37e588980e4ac0dbd76144ce2e3dc5a9f94a02b8491015b60405180910390a1565b60006102d5610eb2565b6102dd610edf565b6000546001600160a01b031633146103375760405162461bcd60e51b815260206004820152601d60248201527f4f6e6c792061646d696e2063616e20776974686472617720555344542e0000006044820152606401610277565b6008546040516370a0823160e01b81523060048201526000916001600160a01b0316906370a0823190602401602060405180830381865afa158015610380573d6000803e3d6000fd5b505050506040513d601f19601f820116820180604052508101906103a49190610fa2565b6040805133815260208101839052428183015290519192507fd145601520053a6cbded7c98f542240fdb9fce419cbeee1e1c264cdf4237fd21919081900360600190a160085460405163a9059cbb60e01b8152336004820152602481018390526001600160a01b039091169063a9059cbb906044015b6020604051808303816000875af1158015610439573d6000803e3d6000fd5b505050506040513d601f19601f8201168201806040525081019061045d9190610fbb565b91505061046960018055565b90565b610474610eb2565b60035460ff166104b45760405162461bcd60e51b815260206004820152600b60248201526a2737ba10333937bd32b71760a91b6044820152606401610277565b6003805460ff1916905560408051600081524260208201527fc8b85755fc66d02ba3b35e91568edb1ad25920be8fdc327cadd6d789efae725891016102c1565b6104fc610eb2565b6105066000610f09565b565b6000610512610eb2565b60035460ff16158061052e57506000546001600160a01b031633145b61054a5760405162461bcd60e51b815260040161027790610fdd565b600082116105a45760405162461bcd60e51b815260206004820152602160248201527f4e6577207072696365206d7573742062652067726561746572207468616e20306044820152601760f91b6064820152608401610277565b60045460408051918252602082018490524282820152517f22db173e2a8b7fa2d933790c01e64878b79e267d813bb3227a15b1c7ac404ffe9181900360600190a1506004819055805b919050565b60006105fc610edf565b60035460ff16158061061857506000546001600160a01b031633145b6106345760405162461bcd60e51b815260040161027790610fdd565b6004546106419083611044565b1561065e5760405162461bcd60e51b815260040161027790611058565b60006004548361066e91906110aa565b90506006548160055461068191906110be565b1061069e5760405162461bcd60e51b8152600401610277906110e5565b600854604051636eb1769f60e11b815233600482015230602482015284916001600160a01b03169063dd62ed3e90604401602060405180830381865afa1580156106ec573d6000803e3d6000fd5b505050506040513d601f19601f820116820180604052508101906107109190610fa2565b101561075e5760405162461bcd60e51b815260206004820152601a60248201527f5553445420616c6c6f77616e6365206e6f7420656e6f7567682e0000000000006044820152606401610277565b6008546040516370a0823160e01b81523360048201526001600160a01b03909116906370a0823190602401602060405180830381865afa1580156107a6573d6000803e3d6000fd5b505050506040513d601f19601f820116820180604052508101906107ca9190610fa2565b8311156108195760405162461bcd60e51b815260206004820152601a60248201527f496e73756666696369656e7420555344542062616c616e63652e0000000000006044820152606401610277565b336000908152600260205260409020546108349084906110be565b336000908152600260205260409020556005546108529082906110be565b600555604080513381523060208201529081018490524260608201527fccee74a23cd6da3af81ee833d62b5bc4d56c5def7e9c074fea6ffeae9730e3e59060800160405180910390a16008546040516323b872dd60e01b8152336004820152306024820152604481018590526001600160a01b03909116906323b872dd906064015b6020604051808303816000875af11580156108f3573d6000803e3d6000fd5b505050506040513d601f19601f820116820180604052508101906109179190610fbb565b9150506105ed60018055565b600061092d610edf565b60035460ff16158061094957506000546001600160a01b031633145b6109655760405162461bcd60e51b815260040161027790610fdd565b6004546109729083611044565b1561098f5760405162461bcd60e51b815260040161027790611058565b60006004548361099f91906110aa565b9050600654816005546109b291906110be565b106109cf5760405162461bcd60e51b8152600401610277906110e5565b600754604051636eb1769f60e11b815233600482015230602482015284916001600160a01b03169063dd62ed3e90604401602060405180830381865afa158015610a1d573d6000803e3d6000fd5b505050506040513d601f19601f82011682018060405250810190610a419190610fa2565b1015610a8f5760405162461bcd60e51b815260206004820152601a60248201527f5553444320616c6c6f77616e6365206e6f7420656e6f7567682e0000000000006044820152606401610277565b6007546040516370a0823160e01b81523360048201526001600160a01b03909116906370a0823190602401602060405180830381865afa158015610ad7573d6000803e3d6000fd5b505050506040513d601f19601f82011682018060405250810190610afb9190610fa2565b831115610b4a5760405162461bcd60e51b815260206004820152601a60248201527f496e73756666696369656e7420555344432062616c616e63652e0000000000006044820152606401610277565b33600090815260026020526040902054610b659084906110be565b33600090815260026020526040902055600554610b839082906110be565b600555604080513381523060208201529081018490524260608201527f54f4902fa5d8aee3d294ee2ffa24d8db87867560acd73a0a3ebe0016de3c9a919060800160405180910390a16007546040516323b872dd60e01b8152336004820152306024820152604481018590526001600160a01b03909116906323b872dd906064016108d4565b6000610c13610eb2565b60035460ff161580610c2f57506000546001600160a01b031633145b610c4b5760405162461bcd60e51b815260040161027790610fdd565b60055460408051918252602082018490524282820152517f457fb56c616802a3e226649c2be4e9d9b0df661b5d4026493c302edffd604f539181900360600190a150600581905590565b610c9d610eb2565b6001600160a01b038116610cc757604051631e4fbdf760e01b815260006004820152602401610277565b610cd081610f09565b50565b6000610cdd610eb2565b60035460ff161580610cf957506000546001600160a01b031633145b610d155760405162461bcd60e51b815260040161027790610fdd565b60065460408051918252602082018490524282820152517f2416dd7afd909a6b9e9340961d193271c118040e16870367018c6c5dbd79e1e79181900360600190a150600681905590565b6000610d69610eb2565b610d71610edf565b6000546001600160a01b03163314610dcb5760405162461bcd60e51b815260206004820152601d60248201527f4f6e6c792061646d696e2063616e20776974686472617720555344432e0000006044820152606401610277565b6007546040516370a0823160e01b81523060048201526000916001600160a01b0316906370a0823190602401602060405180830381865afa158015610e14573d6000803e3d6000fd5b505050506040513d601f19601f82011682018060405250810190610e389190610fa2565b6040805133815260208101839052428183015290519192507fc4bbf6281c4940c4212015e253fae8146d9691c7eed6e60a3295bd59cf4b438c919081900360600190a160075460405163a9059cbb60e01b8152336004820152602481018390526001600160a01b039091169063a9059cbb9060440161041a565b6000546001600160a01b031633146105065760405163118cdaa760e01b8152336004820152602401610277565b600260015403610f0257604051633ee5aeb560e01b815260040160405180910390fd5b6002600155565b600080546001600160a01b038381166001600160a01b0319831681178455604051919092169283917f8be0079c531659141344cd1fd0a4f28419497f9722a3daafe3b4186f6b6457e09190a35050565b600060208284031215610f6b57600080fd5b5035919050565b600060208284031215610f8457600080fd5b81356001600160a01b0381168114610f9b57600080fd5b9392505050565b600060208284031215610fb457600080fd5b5051919050565b600060208284031215610fcd57600080fd5b81518015158114610f9b57600080fd5b60208082526031908201527f416c6c207374617465206368616e67696e67207472616e73616374696f6e732060408201527031bab93932b73a363c90333937bd32b71760791b606082015260800190565b634e487b7160e01b600052601260045260246000fd5b6000826110535761105361102e565b500690565b60208082526032908201527f506c6564676520616d6f756e74206d7573742062652061206d756c7469706c656040820152711037b31031bab93932b73a10383934b1b29760711b606082015260800190565b6000826110b9576110b961102e565b500490565b808201808211156110df57634e487b7160e01b600052601160045260246000fd5b92915050565b60208082526037908201527f4e6f7420656e6f75676820737570706c792e20436f6e7369646572207265647560408201527f63696e6720796f757220706c6564676520636f756e742e00000000000000000060608201526080019056fea26469706673582212209230adcf2063bbbf93ce26f3f99f2722c13b0e049177bf0e891a26531cddccf064736f6c63430008150033",
    "linkReferences": {}
  },
  "methodIdentifiers": {
    "freeze()": "62a5af3b",
    "getIsFrozen()": "236fc8ad",
    "getPledged(address)": "a5cdd536",
    "getPrice()": "98d5fdca",
    "getTotalPledgedCount()": "38b78105",
    "getTotalSupply()": "c4e41b22",
    "owner()": "8da5cb5b",
    "pledgeUsdc(uint256)": "c47797e0",
    "pledgeUsdt(uint256)": "ae47d7ce",
    "renounceOwnership()": "715018a6",
    "setPrice(uint256)": "91b7f5ed",
    "setTotalPledgedCount(uint256)": "dddd8942",
    "setTotalSupply(uint256)": "f7ea7a3d",
    "transferOwnership(address)": "f2fde38b",
    "unfreeze()": "6a28f000",
    "withdrawUsdc()": "fee84d4e",
    "withdrawUsdt()": "6865b8e7"
  },
  "id": 29
}